:020000040800F2
:1000000000040020450100089B010008930100083E
:10001000970100088D010008ED02000800000000B3
:100020000000000000000000000000009F01000828
:1000300091010008000000009D01000889020008ED
:100040005F0100085F0100085F0100085F01000810
:100050005F0100085F0100085F0100085F01000800
:100060005F0100085F0100085F0100085F010008F0
:100070005F0100085F0100085F0100085F010008E0
:100080005F0100085F0100085F0100085F010008D0
:100090005F0100085F0100085F0100085F010008C0
:1000A0005F0100085F0100085F0100085F010008B0
:1000B0005F0100085F0100085F0100085F010008A0
:1000C0005F0100085F0100085F0100085F01000890
:1000D0005F0100085F0100085F0100085F01000880
:1000E0005F0100085F0100085F0100085F01000870
:1000F0005F0100085F0100085F0100085F01000860
:100100005F0100085F0100085F0100085F0100084F
:100110005F0100085F0100085F0100085F0100083F
:100120005F0100085F0100085F0100085F0100082F
:10013000DFF80CD000F018F8004800470F03000863
:10014000000400200648804706480047FEE7FEE717
:10015000FEE7FEE7FEE7FEE7FEE7FEE7FEE7FEE777
:100160008D02000831010008064C074D06E0E068EA
:1001700040F0010394E8070098471034AC42F6D3EE
:10018000FFF7DAFF140300082403000800BFFEE7AE
:10019000704700BFFEE700BFFEE77047704770473B
:1001A00010B500F001F810BD0CB5002001900090D2
:1001B0003348006840F480303149086000BF30485F
:1001C000006800F4003000900198401C01900098F5
:1001D00018B90198B0F5A06FF1D12948006800F472
:1001E000003010B10120009001E000200090009844
:1001F000012843D12348006840F0100021490860DD
:100200000846006820F0030008600846006840F0D7
:10021000020008601A48406819494860084640686A
:1002200048600846406840F480604860084640687E
:1002300020F47C1048600846406840F4E8104860AC
:100240000846006840F08070086000BF0C480068F5
:1002500000F000700028F9D00948406820F0030041
:10026000074948600846406840F00200486000BF07
:100270000348406800F00C000828F9D10CBD0000CC
:1002800000100240002002407047000010B51348E3
:10029000006840F0010011490860084640681049B4
:1002A00008400E494860084600680E4908400B495E
:1002B00008600846006820F480200860084640680E
:1002C00020F4FE0048604FF41F008860FFF768FFCD
:1002D0004FF000600449086010BD000000100240AB
:1002E0000000FFF8FFFFF6FE08ED00E000BFFEE7AC
:1002F00002E008C8121F08C1002AFAD170477047EF
:10030000002001E001C1121F002AFBD1704700202C
:1003100070470000240300080000002000040000D3
:0403200000030008CE
:0400000508000131BD
:00000001FF
